:020000040800F2
:100000006006002099010008A1010008A301000872
:10001000A5010008A7010008A901000800000000D0
:10002000000000000000000000000000AB0100081C
:10003000AD01000800000000AF010008B101000898
:10004000B3010008B3010008B3010008B3010008C0
:10005000B3010008B3010008B3010008B3010008B0
:10006000B3010008B3010008B3010008B3010008A0
:10007000B3010008B3010008B3010008B301000890
:10008000B3010008B3010008B3010008B301000880
:10009000B3010008B3010008B3010008B301000870
:1000A000B3010008B3010008B3010008B301000860
:1000B000B3010008B3010008B3010008B301000850
:1000C000B3010008B3010008B3010008B301000840
:1000D000B3010008B3010008B3010008B301000830
:1000E000B3010008B3010008B301000800F002F8F2
:1000F00000F042F814A696E8000CB244B344DA4586
:1001000001D100F039F8BAE80F000FA696E83000E8
:10011000A5EB040504EB0607AAEB0704A7F101070A
:100120004FEA15154FEA3414A4F10104AC4201D38F
:1001300000F022F813F0010F18BFFB1A43F001037F
:1001400000F001F8DBE718475403000064030000E7
:10015000704700000023002400250026103A28BF25
:1001600078C1FBD8520728BF30C148BF0B60704729
:100170001FB51FBD10B510BD00F031F81146FFF7D7
:10018000F7FF00F069F900F04FF803B4FFF7F2FF52
:1001900003BC00F057F800000948804709480047B1
:1001A000FEE7FEE7FEE7FEE7FEE7FEE7FEE7FEE727
:1001B000FEE7FEE704480549054A064B7047000084
:1001C00049030008ED0000086000002060060020E0
:1001D000600200206002002070477047704775463B
:1001E00000F02CF8AE4605006946534620F00700A3
:1001F000854618B020B5FFF7DDFFBDE820404FF081
:1002000000064FF000074FF000084FF0000BAC461F
:10021000ACE8C009ACE8C009ACE8C009ACE8C0096A
:1002200021F007018D46704710B50446AFF30080FA
:100230002046BDE81040FFF7A8BF00000048704707
:100240000000002001491820ABBEFEE72600020096
:1002500070470000CA7802F00F0CD30644BF8B78B9
:100260004CEA030C2DE9F04709880B0625D082469D
:100270005AF8145B00F1100E00264FF001094FF000
:100280000F08002706E000BF1C600137082F06F1A9
:10029000040611D009FA07F40C42F6D008FA06F366
:1002A00025EA03030CFA06F51D43282A5346EBD032
:1002B000482AEAD17346E7E70560B1F5807F38BF89
:1002C000BDE8F087436800F1100E00F1140A08251C
:1002D00000264FF001094FF00F0805E027600135B7
:1002E000102D06F1040610D009FA05F70F42F6D0DA
:1002F00008FA06F4A3430CFA06F42343282A5446CA
:10030000ECD0482AEBD17446E8E74360BDE8F087BB
:100310004161704701617047002941F21C01C4F23C
:1003200002010A680CBF22EA00001043086070470F
:10033000002941F21801C4F202010A680CBF22EA46
:10034000000010430860704782B041F20400C4F21C
:10035000020050F8041C002241F0010140F8041C86
:100360000168CFF6FF021140016050F8041C4FF6FF
:10037000FF72CFF6F662114040F8041C50F8041CDE
:1003800021F4802140F8041C016821F4FE01016081
:100390004FF41F01416000210191009150F8041CAD
:1003A00041F4803140F8041C50F8041C01F4003181
:1003B0000091019901310191009919B90199B1F5A3
:1003C000A06FF1D150F8041C890354BF0021012112
:1003D00000910099012936D142F20001C4F20201D4
:1003E0000A6842F010020A600A6822F007020A60F6
:1003F0000A6842F002020A60016801600168016057
:10040000016841F480610160016821F47C110160A0
:10041000016841F4E811016050F8041C41F080715A
:1004200040F8041C50F8041C8901FBD5016821F038
:1004300003010160016841F002010160016801F0FF
:100440000C010829FAD14EF60850CEF200004FF008
:100450000061016002B0704782B041F200041420D4
:100460000121C4F20104FFF763FF01200121FFF71E
:1004700053FF42F2E010C1F20300019001A92046AF
:10048000FFF7E8FE20464FF40051FFF743FF2046F8
:100490004FF40051FFF73CFFF4E70000AC04000804
:0C04A0000000002060060000540100086D
:04000005080000ED02
:00000001FF
